:020000040000FA
:10001000956AFF0E936EF19E0F0EC16E040E846EF4
:10002000966AD8908150236E010E235CD8B439ECC7
:1000300000F0020E235CD8B446EC00F0030E235C03
:10004000D8B453EC00F0040E235CD8B463EC00F099
:10005000080E235CD8B4E1EC00F0070E235CD8B4A2
:10006000A5EC00F0060E235CD8B4C3EC00F011EF51
:1000700000F0000E836E12EC01F0832A8150236E93
:10008000010E235CD8B43BEF00F01200FF0E836E2C
:1000900012EC01F083068150236E020E235CD8B46B
:1000A00048EF00F01200000E246E24C026F0FDEC94
:1000B00000F0836E12EC01F0242A100E246255EF3A
:1000C00000F0246A1200000E246E3F0E836E12ECC4
:1000D00001F0242A010E246270EF00F0060E836EF8
:1000E000020E246276EF00F05B0E836E030E246234
:1000F0007CEF00F04F0E836E040E246282EF00F05E
:10010000660E836E050E246288EF00F06D0E836E1E
:10011000060E24628EEF00F07D0E836E070E2462C1
:1001200094EF00F0070E836E080E24629AEF00F041
:100130007F0E836E090E2462A0EF00F06F0E836EB7
:100140000A0E246267EF00F01200246A24C028F02F
:100150000F0E2814266EFDEC00F0276F24C028F047
:10016000283A0F0E2814266EFDEC00F0296F23ECC0
:1001700001F02450010F0700246F600E2462A6EFE7
:1001800000F012001200246A24C028F00F0E281478
:10019000266EFDEC00F0276F24C028F0283A0F0EE1
:1001A0002814266EFDEC00F0296F23EC01F024509A
:1001B000010F0700246F000E2462C4EF00F012004C
:1001C0001200246A24C028F00F0E2814266EFDECBD
:1001D00000F0836E276F24C028F0283A0F0E2814F1
:1001E000266EFDEC00F0836E296F23EC01F0242ACB
:1001F000000E2462E2EF00F0120026502624F9CF10
:1002000001F0F9263F0C060C5B0C4F0C660C6D0CD4
:100210007D0C070C7F0C6F0C770C7C0C390C5E0C82
:10022000790C710C0D0E226EF90E216EFA0E206EF5
:100230000000202E18EF01F0212E16EF01F0222EE3
:1002400014EF01F01200100E226EF90E216EFA0E5C
:10025000206E8492848427C083FF47EC01F0000065
:100260000000836A0000000000008494849284905F
:100270008494848229C083FF47EC01F00000836AE4
:100280000000212E27EF01F0222E25EF01F01D0E98
:0C029000306E0000302E49EF01F012002B
:020000040030CA
:04000000000C1F1EB3
:020005008381F5
:060008000FC00FE00F40E5
:00000001FF
